{
  "contractName": "EtherWallet",
  "abi": [
    {
      "inputs": [],
      "stateMutability": "nonpayable",
      "type": "constructor"
    },
    {
      "inputs": [],
      "name": "owner",
      "outputs": [
        {
          "internalType": "address",
          "name": "",
          "type": "address"
        }
      ],
      "stateMutability": "view",
      "type": "function",
      "constant": true
    },
    {
      "stateMutability": "payable",
      "type": "receive",
      "payable": true
    },
    {
      "inputs": [
        {
          "internalType": "uint256",
          "name": "amount",
          "type": "uint256"
        }
      ],
      "name": "deposit",
      "outputs": [],
      "stateMutability": "payable",
      "type": "function",
      "payable": true
    },
    {
      "inputs": [
        {
          "internalType": "uint256",
          "name": "_amount",
          "type": "uint256"
        }
      ],
      "name": "Withdraw",
      "outputs": [],
      "stateMutability": "nonpayable",
      "type": "function"
    },
    {
      "inputs": [],
      "name": "GetBalance",
      "outputs": [
        {
          "internalType": "uint256",
          "name": "",
          "type": "uint256"
        }
      ],
      "stateMutability": "view",
      "type": "function",
      "constant": true
    }
  ],
  "bytecode": "0x608060405234801561001057600080fd5b50336000806101000a81548173ffffffffffffffffffffffffffffffffffffffff021916908373ffffffffffffffffffffffffffffffffffffffff1602179055506103c4806100606000396000f3fe6080604052600436106100435760003560e01c80635b6b431d1461004f5780638da5cb5b14610078578063b6b55f25146100a3578063f8f8a912146100bf5761004a565b3661004a57005b600080fd5b34801561005b57600080fd5b5061007660048036038101906100719190610238565b6100ea565b005b34801561008457600080fd5b5061008d6101c2565b60405161009a91906102a6565b60405180910390f35b6100bd60048036038101906100b89190610238565b6101e6565b005b3480156100cb57600080fd5b506100d46101f5565b6040516100e191906102d0565b60405180910390f35b60008054906101000a900473ffffffffffffffffffffffffffffffffffffffff1673ffffffffffffffffffffffffffffffffffffffff163373ffffffffffffffffffffffffffffffffffffffff1614610178576040517f08c379a000000000000000000000000000000000000000000000000000000000815260040161016f9061036e565b60405180910390fd5b3373ffffffffffffffffffffffffffffffffffffffff166108fc829081150290604051600060405180830381858888f193505050501580156101be573d6000803e3d6000fd5b5050565b60008054906101000a900473ffffffffffffffffffffffffffffffffffffffff1681565b8034146101f257600080fd5b50565b600047905090565b600080fd5b6000819050919050565b61021581610202565b811461022057600080fd5b50565b6000813590506102328161020c565b92915050565b60006020828403121561024e5761024d6101fd565b5b600061025c84828501610223565b91505092915050565b600073ffffffffffffffffffffffffffffffffffffffff82169050919050565b600061029082610265565b9050919050565b6102a081610285565b82525050565b60006020820190506102bb6000830184610297565b92915050565b6102ca81610202565b82525050565b60006020820190506102e560008301846102c1565b92915050565b600082825260208201905092915050565b7f4f6e6c79206f776e65722063616e2063616c6c20746869732066756e6374696f60008201527f6e00000000000000000000000000000000000000000000000000000000000000602082015250565b60006103586021836102eb565b9150610363826102fc565b604082019050919050565b600060208201905081810360008301526103878161034b565b905091905056fea2646970667358221220ba0c54bca59654375c5278af40f0164f5941ee3a1987634f4c61ac71478eee4064736f6c63430008120033",
  "immutableReferences": {},
  "source": "// SPDX-License-Identifier: MIT\r\npragma solidity ^0.8.18;\r\n\r\ncontract EtherWallet {\r\n\r\n    address public owner;\r\n    // uint private balance;\r\n    constructor() {\r\n        owner = payable(msg.sender);\r\n    }\r\n    receive() external payable {}\r\n    // executed on a call to the contract with empty calldata\r\n    // This function cannot have an argument\r\n\r\n    function deposit(uint256 amount) payable public {\r\n    require(msg.value == amount);\r\n    \r\n    }\r\n\r\n    \r\n    function Withdraw(uint _amount) external {\r\n        require(msg.sender == owner, \"Only owner can call this function\");\r\n        // modifier(payable)\r\n        payable(msg.sender).transfer(_amount);\r\n        \r\n    }\r\n\r\n    function GetBalance() external view returns(uint) {\r\n        return address(this).balance;\r\n    }\r\n}\r\n\r\n\r\n\r\n",
  "sourcePath": "C:\\Cardiff University\\git\\EtherWallet\\Dis_testing\\contracts\\EtherWallet.sol",
  "compiler": {
    "name": "solc",
    "version": "0.8.18+commit.87f61d96.Emscripten.clang"
  },
  "schemaVersion": "3.4.16",
  "updatedAt": "2023-10-02T15:00:40.373Z",
  "networkType": "ethereum",
  "devdoc": {
    "kind": "dev",
    "methods": {},
    "version": 1
  },
  "userdoc": {
    "kind": "user",
    "methods": {},
    "version": 1
  }
}