{
  "contractName": "InstallmentPayment",
  "abi": [
    {
      "inputs": [
        {
          "internalType": "uint256",
          "name": "_totalAmount",
          "type": "uint256"
        },
        {
          "internalType": "uint256",
          "name": "_numInstallments",
          "type": "uint256"
        },
        {
          "internalType": "address",
          "name": "_payee",
          "type": "address"
        },
        {
          "internalType": "uint256",
          "name": "_Duration",
          "type": "uint256"
        }
      ],
      "stateMutability": "nonpayable",
      "type": "constructor"
    },
    {
      "inputs": [],
      "name": "SplitAmount",
      "outputs": [
        {
          "internalType": "uint256",
          "name": "",
          "type": "uint256"
        }
      ],
      "stateMutability": "view",
      "type": "function"
    },
    {
      "inputs": [],
      "name": "TotalAmount",
      "outputs": [
        {
          "internalType": "uint256",
          "name": "",
          "type": "uint256"
        }
      ],
      "stateMutability": "view",
      "type": "function"
    },
    {
      "inputs": [
        {
          "internalType": "uint256",
          "name": "",
          "type": "uint256"
        }
      ],
      "name": "installments",
      "outputs": [
        {
          "internalType": "uint256",
          "name": "DueDate",
          "type": "uint256"
        },
        {
          "internalType": "enum InstallmentPayment.PaymentStatus",
          "name": "status",
          "type": "uint8"
        }
      ],
      "stateMutability": "view",
      "type": "function"
    },
    {
      "inputs": [],
      "name": "numInstallments",
      "outputs": [
        {
          "internalType": "uint256",
          "name": "",
          "type": "uint256"
        }
      ],
      "stateMutability": "view",
      "type": "function"
    },
    {
      "inputs": [],
      "name": "paidInstallments",
      "outputs": [
        {
          "internalType": "uint256",
          "name": "",
          "type": "uint256"
        }
      ],
      "stateMutability": "view",
      "type": "function"
    },
    {
      "inputs": [],
      "name": "payee",
      "outputs": [
        {
          "internalType": "address",
          "name": "",
          "type": "address"
        }
      ],
      "stateMutability": "view",
      "type": "function"
    },
    {
      "inputs": [],
      "name": "payer",
      "outputs": [
        {
          "internalType": "address",
          "name": "",
          "type": "address"
        }
      ],
      "stateMutability": "view",
      "type": "function"
    },
    {
      "stateMutability": "payable",
      "type": "receive"
    },
    {
      "inputs": [],
      "name": "makePayment",
      "outputs": [],
      "stateMutability": "payable",
      "type": "function"
    },
    {
      "inputs": [
        {
          "internalType": "uint256",
          "name": "index",
          "type": "uint256"
        }
      ],
      "name": "getInstallmentDetails",
      "outputs": [
        {
          "internalType": "uint256",
          "name": "DueDate",
          "type": "uint256"
        },
        {
          "internalType": "enum InstallmentPayment.PaymentStatus",
          "name": "status",
          "type": "uint8"
        }
      ],
      "stateMutability": "view",
      "type": "function"
    }
  ],
  "bytecode": "0x60806040523480156200001157600080fd5b5060405162000ea138038062000ea183398181016040528101906200003791906200026c565b336000806101000a81548173ffffffffffffffffffffffffffffffffffffffff021916908373ffffffffffffffffffffffffffffffffffffffff16021790555081600160006101000a81548173ffffffffffffffffffffffffffffffffffffffff021916908373ffffffffffffffffffffffffffffffffffffffff1602179055508360048190555082600581905550600554600454620000d891906200033c565b60038190555060005b83811015620001bc57600660405180604001604052808460018562000107919062000374565b620001139190620003af565b4262000120919062000374565b81526020016001808111156200013b576200013a620003fa565b5b81525090806001815401808255809150506001900390600052602060002090600202016000909190919091506000820151816000015560208201518160010160006101000a81548160ff021916908360018111156200019f576200019e620003fa565b5b021790555050508080620001b39062000429565b915050620000e1565b505050505062000476565b600080fd5b6000819050919050565b620001e181620001cc565b8114620001ed57600080fd5b50565b6000815190506200020181620001d6565b92915050565b600073ffffffffffffffffffffffffffffffffffffffff82169050919050565b6000620002348262000207565b9050919050565b620002468162000227565b81146200025257600080fd5b50565b60008151905062000266816200023b565b92915050565b60008060008060808587031215620002895762000288620001c7565b5b60006200029987828801620001f0565b9450506020620002ac87828801620001f0565b9350506040620002bf8782880162000255565b9250506060620002d287828801620001f0565b91505092959194509250565b7f4e487b7100000000000000000000000000000000000000000000000000000000600052601260045260246000fd5b7f4e487b7100000000000000000000000000000000000000000000000000000000600052601160045260246000fd5b60006200034982620001cc565b91506200035683620001cc565b925082620003695762000368620002de565b5b828204905092915050565b60006200038182620001cc565b91506200038e83620001cc565b9250828201905080821115620003a957620003a86200030d565b5b92915050565b6000620003bc82620001cc565b9150620003c983620001cc565b9250828202620003d981620001cc565b91508282048414831517620003f357620003f26200030d565b5b5092915050565b7f4e487b7100000000000000000000000000000000000000000000000000000000600052602160045260246000fd5b60006200043682620001cc565b91507fffffffffffffffffffffffffffffffffffffffffffffffffffffffffffffffff82036200046b576200046a6200030d565b5b600182019050919050565b610a1b80620004866000396000f3fe60806040526004361061008a5760003560e01c80637eb9f571116100595780637eb9f57114610168578063984c780414610193578063ae90b213146101be578063d8d79700146101e9578063e4e06c5a146101f357610091565b8063123119cd1461009657806344defdfd146100c15780635a7c779a146100ec578063791756c51461012a57610091565b3661009157005b600080fd5b3480156100a257600080fd5b506100ab61021e565b6040516100b8919061060b565b60405180910390f35b3480156100cd57600080fd5b506100d6610242565b6040516100e3919061063f565b60405180910390f35b3480156100f857600080fd5b50610113600480360381019061010e919061068b565b610248565b60405161012192919061072f565b60405180910390f35b34801561013657600080fd5b50610151600480360381019061014c919061068b565b610319565b60405161015f92919061072f565b60405180910390f35b34801561017457600080fd5b5061017d61035a565b60405161018a919061063f565b60405180910390f35b34801561019f57600080fd5b506101a8610360565b6040516101b5919061063f565b60405180910390f35b3480156101ca57600080fd5b506101d3610366565b6040516101e0919061060b565b60405180910390f35b6101f161038c565b005b3480156101ff57600080fd5b506102086105c4565b604051610215919061063f565b60405180910390f35b60008054906101000a900473ffffffffffffffffffffffffffffffffffffffff1681565b60025481565b600080600554831061028f576040517f08c379a0000000000000000000000000000000000000000000000000000000008152600401610286906107b5565b60405180910390fd5b6000600684815481106102a5576102a46107d5565b5b9060005260206000209060020201604051806040016040529081600082015481526020016001820160009054906101000a900460ff1660018111156102ed576102ec6106b8565b5b60018111156102ff576102fe6106b8565b5b815250509050806000015181602001519250925050915091565b6006818154811061032957600080fd5b90600052602060002090600202016000915090508060000154908060010160009054906101000a900460ff16905082565b60045481565b60035481565b600160009054906101000a900473ffffffffffffffffffffffffffffffffffffffff1681565b60008054906101000a900473ffffffffffffffffffffffffffffffffffffffff1673ffffffffffffffffffffffffffffffffffffffff163373ffffffffffffffffffffffffffffffffffffffff161461041a576040517f08c379a000000000000000000000000000000000000000000000000000000000815260040161041190610876565b60405180910390fd5b6005546002541061042a57600080fd5b60006002549050600060068281548110610447576104466107d5565b5b9060005260206000209060020201905060018081111561046a576104696106b8565b5b8160010160009054906101000a900460ff16600181111561048e5761048d6106b8565b5b146104ce576040517f08c379a00000000000000000000000000000000000000000000000000000000081526004016104c5906108e2565b60405180910390fd5b6003543414610512576040517f08c379a00000000000000000000000000000000000000000000000000000000081526004016105099061094e565b60405180910390fd5b60008054906101000a900473ffffffffffffffffffffffffffffffffffffffff1673ffffffffffffffffffffffffffffffffffffffff166108fc6003549081150290604051600060405180830381858888f1935050505015801561057a573d6000803e3d6000fd5b5060008160010160006101000a81548160ff021916908360018111156105a3576105a26106b8565b5b0217905550600260008154809291906105bb9061099d565b91905055505050565b60055481565b600073ffffffffffffffffffffffffffffffffffffffff82169050919050565b60006105f5826105ca565b9050919050565b610605816105ea565b82525050565b600060208201905061062060008301846105fc565b92915050565b6000819050919050565b61063981610626565b82525050565b60006020820190506106546000830184610630565b92915050565b600080fd5b61066881610626565b811461067357600080fd5b50565b6000813590506106858161065f565b92915050565b6000602082840312156106a1576106a061065a565b5b60006106af84828501610676565b91505092915050565b7f4e487b7100000000000000000000000000000000000000000000000000000000600052602160045260246000fd5b600281106106f8576106f76106b8565b5b50565b6000819050610709826106e7565b919050565b6000610719826106fb565b9050919050565b6107298161070e565b82525050565b60006040820190506107446000830185610630565b6107516020830184610720565b9392505050565b600082825260208201905092915050565b7f496e76616c696420696e64657800000000000000000000000000000000000000600082015250565b600061079f600d83610758565b91506107aa82610769565b602082019050919050565b600060208201905081810360008301526107ce81610792565b9050919050565b7f4e487b7100000000000000000000000000000000000000000000000000000000600052603260045260246000fd5b7f4f6e6c792070617965722063616e2063616c6c20746869732066756e6374696f60008201527f6e2e000000000000000000000000000000000000000000000000000000000000602082015250565b6000610860602283610758565b915061086b82610804565b604082019050919050565b6000602082019050818103600083015261088f81610853565b9050919050565b7f496e7374616c6c6d656e7420616c726561647920706169640000000000000000600082015250565b60006108cc601883610758565b91506108d782610896565b602082019050919050565b600060208201905081810360008301526108fb816108bf565b9050919050565b7f496e636f7272656374207061796d656e7420616d6f756e740000000000000000600082015250565b6000610938601883610758565b915061094382610902565b602082019050919050565b600060208201905081810360008301526109678161092b565b9050919050565b7f4e487b7100000000000000000000000000000000000000000000000000000000600052601160045260246000fd5b60006109a882610626565b91507fffffffffffffffffffffffffffffffffffffffffffffffffffffffffffffffff82036109da576109d961096e565b5b60018201905091905056fea26469706673582212205a05cffde11e03763136d681f81cd563faa4c16832e2b3546920dd04f7524e2264736f6c63430008120033",
  "immutableReferences": {},
  "source": "// SPDX-License-Identifier: MIT\r\npragma solidity ^0.8.18;\r\n\r\ncontract InstallmentPayment{\r\n    address public payer;\r\n    address public payee;\r\n    uint public paidInstallments;\r\n    uint public SplitAmount;\r\n    uint public TotalAmount;\r\n    uint public numInstallments;\r\n \r\n\r\n    enum PaymentStatus { Paid, Pending }\r\n\r\n    receive() external payable {}\r\n\r\n    struct Installment {\r\n        uint DueDate;\r\n        PaymentStatus status;\r\n    }\r\n\r\n    Installment[] public installments;\r\n\r\n    constructor(\r\n        uint _totalAmount,\r\n        uint _numInstallments,\r\n        address _payee,\r\n        uint _Duration\r\n        //note: to fill the duration days for payment when deploying, it has to convert days into seconds\r\n        // because it's how evm executed; ex. 15 days = 15*24*60*60\r\n    ) {\r\n            payer = payable(msg.sender);\r\n            payee = _payee;\r\n            // wallet address for merchant\r\n            TotalAmount = _totalAmount;\r\n            numInstallments = _numInstallments;\r\n            SplitAmount = TotalAmount/numInstallments;\r\n\r\n        \r\n             for (uint i = 0; i<_numInstallments ; i++) {\r\n                installments.push(Installment({\r\n                DueDate: block.timestamp + (i+1) * _Duration,\r\n                // DueDate for each installment (i+1 number of current installments and so on) \r\n                status: PaymentStatus.Pending\r\n            }));}\r\n        }\r\n    \r\n\r\n    modifier onlyPayer() {\r\n        require(msg.sender == payer, \"Only payer can call this function.\");\r\n        _;\r\n    }\r\n    modifier  onlyPayee() {\r\n        require(msg.sender == payee, \"Only payee can call this function.\");\r\n        _;\r\n    }\r\n\r\n    function makePayment() external payable onlyPayer {\r\n        require(paidInstallments < numInstallments);\r\n        uint currentPayment = paidInstallments;\r\n        Installment storage installment = installments[currentPayment];\r\n        require(installment.status == PaymentStatus.Pending, \"Installment already paid\");\r\n        require(msg.value == SplitAmount, \"Incorrect payment amount\");\r\n        payable(payer).transfer(SplitAmount);\r\n        installment.status = PaymentStatus.Paid;\r\n        paidInstallments++;\r\n    }\r\n\r\n    function getInstallmentDetails(uint index) external view returns (uint DueDate, PaymentStatus status) {\r\n        require(index < numInstallments, \"Invalid index\");\r\n        Installment memory installment = installments[index];\r\n        return (installment.DueDate, installment.status);\r\n    }\r\n\r\n}\r\n    // receive() payable external {} ",
  "sourcePath": "C:\\Cardiff University\\git\\EtherWallet\\Dis_testing\\contracts\\Installmentpayment.sol",
  "compiler": {
    "name": "solc",
    "version": "0.8.18+commit.87f61d96.Emscripten.clang"
  },
  "schemaVersion": "3.4.16",
  "updatedAt": "2023-10-02T15:00:36.239Z",
  "devdoc": {
    "kind": "dev",
    "methods": {},
    "version": 1
  },
  "userdoc": {
    "kind": "user",
    "methods": {},
    "version": 1
  }
}